:020000040000FA
:10000000FE0E25000704970C02003F0C2D00060091
:10001000FF0C9609FF0C96096600830C0F0C400C30
:1000200030000C0C3100C00C700190056609200CEA
:100030006D09D00C6D09010C6D0911026D091002DA
:100040006D09020C6D09400C6D09000C6D09000C66
:100050006D09020C6D09700C6D0969090F0C6F01B7
:10006000EF05390AAF028F06EF00390AEF00EF07FC
:10007000AF026609220C6D09050C6D09880C6D092B
:100080000F026D0969099D0A6609200C6D09C30CF0
:100090006D09010C6D0969099D0A6609200C6D093D
:1000A000C10C6D09010C6D0969099D0A4D050D0210
:1000B000060000084D040D02060000082D050D0283
:1000C000060000082D040D02060000085E095A090A
:1000D00000085A095E09560900082C00080C2B007C
:1000E0006209EC07750A5609760A5A095E096C031B
:1000F000EB02700A620956095E0906022E006209C7
:100100000008080C2B006C006C0362095E094606AF
:100110000C05EB02840A620900085A095E096209AB
:100120005609000856095E096209000829002A00DC
:10013000E902980AEA02980A000866069D0A610028
:100140006607A00A010232001E0C920003079D0AF6
:100150002D0C920003069D0A61006606AD0A01029D
:1001600032000D0C920003079D0A140C9200030646
:100170009D0A7300150C24007400600020036100C8
:100180006607C00A01023200010C920003079D0AB3
:10019000030C920003069D0A61006606CD0A010267
:1001A0003200040C92000307DA0A080C92000306DE
:1001B0009D0AE005B4027407BE0AB3025306E20AC0
:1001C000A402BC0A5602950143079D0A58029701F2
:1001D00043079D0A050C97014307EF0A360A060CF0
:1001E00097014307F40A320A020C97014307F90A00
:0E01F0004D0A030C97014307FE0A440A9D0ABC
:080400000F00020002000200DF
:021FFE00EA0FE8
:00000001FF
