:020000040000FA
:10000000FE0E25000704970C02003F0C340006008A
:10001000FF0C9609FF0C96096600830C160C400C29
:1000200037000C0C3800C00C770197056609200CCE
:100030006D09D00C6D09010C6D0918026D091702CC
:100040006D09020C6D09400C6D09000C6D09000C66
:100050006D09020C6D09700C6D0969090F0C7601B0
:10006000F605390AB6029606F600390AF600F607D2
:10007000B6026609220C6D09050C6D09880C6D0924
:1000800016026D0969099D0A6609200C6D09C30CE9
:100090006D09010C6D0969099D0A6609200C6D093D
:1000A000C10C6D09010C6D0969099D0A5405140202
:1000B0000600000854041402060000083405140267
:1000C0000600000834041402060000085E095A09FC
:1000D00000085A095E09560900083300080C32006E
:1000E0006209F307750A5609760A5A095E0973030D
:1000F000F202700A620956095E09060235006209B9
:100100000008080C32007300730362095E0946069A
:100110001305F202840A620900085A095E0962099D
:100120005609000856095E096209000830003100CE
:10013000F002980AF102980A000866069D0A61001A
:100140006607A00A010239001E0C990003079D0AE8
:100150002D0C990003069D0A61006606AD0A010296
:1001600039000D0C990003079D0A140C9900030631
:100170009D0A7A001C0C24007B00600020036100B3
:100180006607C00A01023900010C990003079D0AA5
:10019000030C990003069D0A61006606CD0A010260
:1001A0003900040C99000307DA0A080C99000306C9
:1001B0009D0AE005BB027B07BE0ABA025A06E20AA4
:1001C000A402BC0A5D029C0143079D0A5F029E01D6
:1001D00043079D0A050C9E014307EF0A360A060CE9
:1001E0009E014307F40A320A020C9E014307F90AF2
:0E01F0004D0A030C9E014307FE0A440A9D0AB5
:080200000F00020002000000E3
:021FFE00EA0FE8
:00000001FF
