:020000040000FA
:10000000FE0E2500970C02003F0C2B000600FF0C93
:100010009509FF0C95096600830C0D0C400C2E0011
:100020000C0C2F00C00C6E018E056509200C6C09AC
:10003000D00C6C09010C6C090F026C090E026C09E2
:10004000020C6C09400C6C09000C6C09000C6C096A
:10005000020C6C09700C6C0968090F0C6D01ED0540
:10006000380AAD028D06ED00380AED00ED07AD024D
:100070006509220C6C09050C6C09880C6C090D02D1
:100080006C0968099C0A6509200C6C09C30C6C0991
:10009000010C6C0968099C0A6509200C6C09C10CEB
:1000A0006C09010C6C0968099C0AAB050B0206007F
:1000B0000008AB040B02060000088B050B020600CB
:1000C00000088B040B02060000085D0959090008AE
:1000D00059095D09550900082A00080C2900610921
:1000E000EA07740A5509750A59095D096A03E902A4
:1000F0006F0A610955095D0906022C0061090008B3
:10010000080C29006A006A0361095D09A6060A0550
:10011000E902830A6109000859095D096109550965
:10012000000855095D096109000827002800E70259
:10013000970AE802970A000866069C0A61006607AB
:100140009F0A010230001E0C900003079C0A2D0C30
:10015000900003069C0A61006606AC0A01023000AA
:100160000D0C900003079C0A140C900003069C0AD7
:100170007100130C24007200600020036100660708
:10018000BF0A01023000010C900003079C0A030C17
:10019000900003069C0A61006606CC0A010230004A
:1001A000040C90000307D90A080C900003069C0A6F
:1001B000E005B2027207BD0AB1025106E10AA402CB
:1001C000BB0A5402930143079C0A56029501430758
:1001D0009C0A050C95014307EE0A350A060C9501A9
:1001E0004307F30A310A020C95014307F80A4C0A47
:0C01F000030C95014307FD0A430A9C0A1A
:080400000F00050000000800D8
:021FFE00EA0FE8
:00000001FF
