:020000040000FA
:10000000FE0E250067040804970C02003F0C2E002A
:100010000600FF0C9709FF0C97096600830C100C73
:10002000400C31000C0C3200C00C710191056709C5
:10003000200C6E09D00C6E09010C6E0912026E09BB
:1000400011026E09020C6E09400C6E09000C6E095B
:10005000000C6E09020C6E09700C6E096A090F0C17
:100060007001F0053A0AB0029006F0003A0AF0007A
:10007000F007B0026709220C6E09050C6E09880CA6
:100080006E0910026E096A099E0A6709200C6E0942
:10009000C30C6E09010C6E096A099E0A6709200CDF
:1000A0006E09C10C6E09010C6E096A099E0AAE0543
:1000B0000E0206000008AE040E02060000088E05BF
:1000C0000E02060000088E040E02060000085F09FA
:1000D0005B0900085B095F09570900082D00080C3F
:1000E0002C006309ED07760A5709770A5B095F0957
:1000F0006D03EC02710A630957095F0906022F00BC
:1001000063090008080C2C006D006D0363095F098A
:10011000A6060D05EC02850A630900085B095F0964
:1001200063095709000857095F09630900082A0095
:100130002B00EA02990AEB02990A000866069E0A59
:1001400061006607A10A010233001E0C9300030739
:100150009E0A2D0C930003069E0A61006606AE0AF5
:10016000010233000D0C930003079E0A140C930048
:1001700003069E0A7400160C24007500600020031C
:1001800061006607C10A01023300010C93000307F6
:100190009E0A030C930003069E0A61006606CE0ABF
:1001A00001023300040C93000307DB0A080C9300E0
:1001B00003069E0AE005B5027507BF0AB40254069D
:1001C000E30AA402BD0A5702960143079E0A590298
:1001D000980143079E0A050C98014307F00A370A65
:1001E000060C98014307F50A330A020C98014307ED
:1001F000FA0A4E0A030C98014307FF0A450A9E0AB1
:080800000F00050001000000DB
:021FFE00CA0F08
:00000001FF
