:020000040000FA
:10000000FE0E2500970C02003F0C2C000600FF0C92
:100010009509FF0C95096600830C0E0C400C2F000F
:100020000C0C3000C00C6F018F056509200C6C09A9
:10003000D00C6C09010C6C0910026C090F026C09E0
:10004000020C6C09400C6C09000C6C09000C6C096A
:10005000020C6C09700C6C0968090F0C6E01EE053E
:10006000380AAE028E06EE00380AEE00EE07AE0247
:100070006509220C6C09050C6C09880C6C090E02D0
:100080006C0968099C0A6509200C6C09C30C6C0991
:10009000010C6C0968099C0A6509200C6C09C10CEB
:1000A0006C09010C6C0968099C0A4C050C020600DD
:1000B00000084C040C02060000082C050C02060087
:1000C00000082C040C02060000085D09590900080C
:1000D00059095D09550900082B00080C2A0061091F
:1000E000EB07740A5509750A59095D096B03EA02A1
:1000F0006F0A610955095D0906022D0061090008B2
:10010000080C2A006B006B0361095D0946060B05AC
:10011000EA02830A6109000859095D096109550964
:10012000000855095D096109000828002900E80256
:10013000970AE902970A000866069C0A61006607AA
:100140009F0A010231001E0C910003079C0A2D0C2E
:10015000910003069C0A61006606AC0A01023100A8
:100160000D0C910003079C0A140C910003069C0AD5
:100170007200140C24007300600020036100660705
:10018000BF0A01023100010C910003079C0A030C15
:10019000910003069C0A61006606CC0A0102310048
:1001A000040C91000307D90A080C910003069C0A6D
:1001B000E005B3027307BD0AB2025206E10AA402C7
:1001C000BB0A5502940143079C0A57029601430754
:1001D0009C0A050C96014307EE0A350A060C9601A7
:1001E0004307F30A310A020C96014307F80A4C0A46
:0C01F000030C96014307FD0A430A9C0A19
:080400000F00020000000200E1
:021FFE00EB0FE7
:00000001FF
