:020000040000FA
:10000000FE0E25006704970C02003F0C2C00060032
:10001000FF0C9609FF0C96096600830C0E0C400C31
:100020002F000C0C3000C00C6F018F056609200CEE
:100030006D09D00C6D09010C6D0910026D090F02DC
:100040006D09020C6D09400C6D09000C6D09000C66
:100050006D09020C6D09700C6D0969090F0C6E01B8
:10006000EE05390AAE028E06EE00390AEE00EE0702
:10007000AE026609220C6D09050C6D09880C6D092C
:100080000E026D0969099D0A6609200C6D09C30CF1
:100090006D09010C6D0969099D0A6609200C6D093D
:1000A000C10C6D09010C6D0969099D0A4C050C0212
:1000B000060000084C040C02060000082C050C0287
:1000C000060000082C040C02060000085E095A090C
:1000D00000085A095E09560900082B00080C2A007E
:1000E0006209EB07750A5609760A5A095E096B031D
:1000F000EA02700A620956095E0906022D006209C9
:100100000008080C2A006B006B0362095E094606B2
:100110000B05EA02840A620900085A095E096209AD
:100120005609000856095E096209000828002900DE
:10013000E802980AE902980A000866069D0A61002A
:100140006607A00A010231001E0C910003079D0AF8
:100150002D0C910003069D0A61006606AD0A01029E
:1001600031000D0C910003079D0A140C9100030649
:100170009D0A7200140C24007300600020036100CB
:100180006607C00A01023100010C910003079D0AB5
:10019000030C910003069D0A61006606CD0A010268
:1001A0003100040C91000307DA0A080C91000306E1
:1001B0009D0AE005B3027307BE0AB2025206E20AC4
:1001C000A402BC0A5502940143079D0A57029601F6
:1001D00043079D0A050C96014307EF0A360A060CF1
:1001E00096014307F40A320A020C96014307F90A02
:0E01F0004D0A030C96014307FE0A440A9D0ABD
:080400000F00020000000600DD
:021FFE00EB0FE7
:00000001FF
